:0E0000000C94AF000C9400000C9400000C94C3
:10000E0000000C9400000C9400000C9400000C9462
:10001E0000000C9400000C9400000C9400000C9452
:10002E0000000C9400000C9400000C9400000C9442
:10003E0000000C9400000C9400000C9400000C9432
:10004E0000000C9400001027E80364000A00010071
:10005E0000100001100001004652454356454E5413
:10006E00413D256420487A00434F4152444120458A
:10007E0020202020203C3C3C00434F415244412054
:10008E004520202020203E3E3E00434F4152444119
:10009E00204120202020203C3C3C00434F41524434
:1000AE0041204120202020203E3E3E00434F415221
:1000BE004441204420202020203C3C3C00434F4122
:1000CE00524441204420202020203E3E3E00434FFB
:1000DE0041524441204720202020203C3C3C0043FC
:1000EE004F41524441204720202020203E3E3E00DA
:1000FE00434F41524441204820202020203C3C3C8C
:10010E0000434F41524441204820202020203E3EB3
:10011E003E00434F41524441204548202020203C80
:10012E003C3C00434F415244412045482020202072
:10013E003E3E3E0001002D4E414E00494E4600000F
:10014E0080C0010072014201020076014E010000E2
:10015E00F894EE27ECBBF1E0FBBFEBBFE5BFF8E197
:10016E00F1BDE1BD8DE0A2E0BB27ED938A95E9F7E5
:10017E0080E094E0A0E6ED930197E9F7E0E5F1E089
:10018E0085919591009761F0A591B5910590159087
:10019E00BF01F00105900D920197E1F7FB01F0CF41
:1001AE00EFE5EDBFE4E0EEBFC0E6D1E00C94DF007A
:1001BE00F8D07894A0E120D3A895E4E0E9BFE7E079
:1001CE00EEBDA8EEB3E0B2D3E0E0EEBDECB5FDB50A
:1001DE00E0936001F0936101E0E0EA93A0E0D0D2F9
:1001EE00DCD233D3E6E6F0E0FA93EA93E0916001D5
:1001FE00F091610189D395D384E054D228962AD305
:10020E00A03AE0E0BE072CF02DD3A93AE0E0BE07FD
:10021E000CF017C027D3A43AE0E0BE070CF427D3A6
:10022E0014D3E6E7F0E027D315D3A53AE0E0BE07F6
:10023E000CF01DD30AD3E7E8F0E01DD3A2E6B1E03F
:10024E00CAD210D3A83DE0E0BE072CF00BD3A13EDE
:10025E00E0E0BE070CF017C005D3AC3DE0E0BE07F2
:10026E000CF405D3F2D2E8E9F0E005D3F3D2AD3DBC
:10027E00E0E0BE070CF0FBD2E8D2E9EAF0E0FBD2F8
:10028E00A2E6B1E0A8D2EED2A132E1E0BE072CF098
:10029E00E9D2AA32E1E0BE070CF017C0E3D2A532D4
:1002AE00E1E0BE070CF4E3D2D0D2EAEBF0E0E3D209
:1002BE00D1D2A632E1E0BE070CF0D9D2C6D2EBEC19
:1002CE00F0E0D9D2A2E6B1E086D2CCD2A438E1E0F9
:1002DE00BE072CF0C7D2AD38E1E0BE070CF017C058
:1002EE00C1D2A838E1E0BE070CF4C1D2AED2ECED1B
:1002FE00F0E0C1D2AFD2A938E1E0BE070CF0B7D220
:10030E00A4D2EDEEF0E0B7D2A2E6B1E064D2AAD26A
:10031E00A93EE1E0BE072CF0A5D2A23FE1E0BE0768
:10032E000CF017C09FD2AD3EE1E0BE070CF49FD299
:10033E008CD2EEEFF0E09FD28DD2AE3EE1E0BE0762
:10034E000CF095D282D2EFE0F1E095D2A2E6B1E0C8
:10035E0042D288D2AF38E2E0BE072CF083D2A83961
:10036E00E2E0BE070CF017C07DD2A339E2E0BE0773
:10037E000CF47DD26AD2E0E2F1E07DD26BD2A439E8
:10038E00E2E0BE070CF073D260D2E1E3F1E073D28B
:10039E00A2E6B1E020D2E0E0F0E0FDBDECBD0DCF75
:1003AE00FFCFE0E0EBBBEABBE8BBE7BBE5BBE4BBE2
:1003BE00E3BFE2BFECBFEFBDEDE0EEBDE0E0EDBDB3
:1003CE00ECBDE7BDE6BDE8E3EBBDE0E4EABDE0E091
:1003DE00E9BDE8BDE2BDE5BDE4BDE3BDE5BFE4BFFB
:1003EE00E4B7E068E4BFE4B7E068E4BF0895BA9309
:1003FE00AA931A930A93AA81BB8112968AD2309736
:10040E0009F1AA81BB81149684D28F01309761F0D5
:10041E000230E0E01E0778F0F80131978F01AA81D3
:10042E00BB811496ED93FC93AA81BB81129629D2BF
:10043E003197AC81A083AA81BB816BD2FF230AF0D6
:10044E0020D206C0AA81BB81EFEFFFEFED93FC93A4
:10045E001981088125960895BA93AA9326973ED2BC
:10046E0010E0AC85BD85E0E0F0E0ED93FC93EA8909
:10047E00FB893196EA8BFB8B3197E4912E2FE0307E
:10048E0009F409C1E12FE03031F4253211F411E005
:10049E0001C0FDD1FFC0E130A1F4253211F4F7D136
:1004AE00F8C012E040E000E02D3211F401E0F2C09D
:1004BE002B3211F44BE2EEC0203211F440E2EAC0CE
:1004CE0002C0E23039F450E013E0203311F400683A
:1004DE00E1C003C0E33009F0DDC0203310F02A3351
:1004EE0008F007C0AAE05A9F502DE22FE0535E0F8E
:1004FE00D1C0E22FE33639F4D1D1E889F989A4814C
:10050E00AA93D2D1C6C0E33729F4C8D1D3D1FFD034
:10051E001E2F07C0E03749F4C1D1CCD104D11E2F14
:10052E00086002600F7730E038C0E43611F0E9362B
:10053E0011F4046002C0E53731F4E4E5F0E0EE8337
:10054E00FF8315E00CC0E83511F4086003C0E837EE
:10055E0009F09FC0EEE5F0E0EE83FF8314E002FFAA
:10056E0015C09CD1A889B9891496ED91FD91EA87A1
:10057E00FB87AB85AA2322F4C3D1EA87FB874DE222
:10058E00403011F01F5F01C00B7F07C087D1A889D3
:10059E00B9891496BED1EA87FB8700FD10C01517E6
:1005AE0070F407FF08C002FF04C00B7F242F115008
:1005BE0001C020E301C020E26AD15150F0CF312FAB
:1005CE0001FF16C0303099F003FF06C0EE81FF81A7
:1005DE002591EE83FF8305C0AE81BF812D91AE8341
:1005EE00BF8355D1503009F051503150EBCF48C038
:1005FE0020E3EE81FF8191D1E887F987EE81FF81BB
:10060E003296EE83FF83E885F985AA85BB85AE1702
:10061E00BF0750F02F5FA885B985EA85FB85EA1BD9
:10062E00FB0BEA87FB87EFCF2A3328F003FF02C0CC
:10063E00295F01C0295D04FD19C0213320F4A8856E
:10064E00B985119709F409C0531710F000FF01C0C6
:10065E0011C020E207FF0AC020E3006102FF06C0BE
:10066E000B7F4A9321D1503009F0515010D15030A8
:10067E0009F051503150A885B985129708F0B8CFBE
:10068E0000FF07C0503029F05150E0E2EA930CD140
:10069E00F9CF10E0ECCEAC85BD85ED91FD9125D165
:1006AE0064960895FF92F82E26971AD1DE011C96B5
:1006BE0023D12FD1309719F4EFEFFFEF24C0DE01D5
:1006CE0016961AD18D01DE011C9616D1ED91FD9173
:1006DE00EE83FF83E0E0E887E987DE011A960CD10E
:1006EE00ED91FD91FA93EA931A930A93EEEFF1E0EE
:1006FE00FA93EA93DE011A96AFDE9F01AE81BF81B7
:10070E00E0E0EC93F901F3D02A96FF900895BA93A6
:10071E00AA93A991B991EE27FF276D91662311F047
:10072E003196FBCF0895BA93AA93AA27BB27E991D6
:10073E00F9910590002011F01196FBCFFD0108955F
:10074E00AA93E5B3EF70AE2FE881E07FEA2BE5BB0D
:10075E0085E08A95F1F7AA9A8CE08A95F1F7AA9826
:10076E008CE08A95F1F76FC0AA93A881E9DFE88142
:10077E00E295E883A881E4DF8BE78A95F1F763C001
:10078E00AA93E881F0E0EA58FE4FE081A981AE0F0E
:10079E00EBDF5980488022960895A2E095D0ACE018
:1007AE00E3DFA1E091D0E0E04E2E5E2E0895AA93F5
:1007BE00A881AA3011F0571440F0E0E0EA93439478
:1007CE00A42DDEDFA881AA30F1F15394A89AA88156
:1007DE00CBDFA89838C0BA93AA931A93A981BA818D
:1007EE00ED91A983BA831E2FE03019F0A12FDFDF20
:1007FE00F5CF188123960895AA93E4B3E06FE4BB76
:10080E00A29AA09AA19AAA98A898A9987880E88105
:10081E00E058E0937801E881E054E0937901A4E197
:10082E00B0E084D055D054D053D0A0E289DF86EF0B
:10083E008A95F1F7A8E298DFA4E096DFA5E894DFA9
:10084E00A6E092DFAADF21960895E2E6F1E0FA93A0
:10085E00EA930895A2E6B1E0BEDFA0916001B091E7
:10086E0061010895A0916001B09161010895E0E0E9
:10087E00EA93A1E085CFFA93EA9380E013DF249602
:10088E000895ED91FD913196FE93EE9308952A937E
:10089E00AD85BE85EF85F88909950895E889F989B2
:1008AE003497E88BF98B0895AD85BE85EF85F88971
:1008BE0009950895A889B9891496ED91FD91EE8355
:1008CE00FF83AE81BF8108954FDFA3E0B0E02EC05D
:1008DE00A0E336DF86EF8A95F1F708955A934A938F
:1008EE003A932A931A930A9308955D814C813B8122
:1008FE002A811981088108950024AF0DB01D089535
:10090E00F195E195F04008956F2F660F660B762FE7
:10091E000895ED91FC91119708950590F491E02DB5
:10092E0008957A936A93FA93EA930895109639F09C
:10093E00A89583E397E00197F1F71197C9F708950A
:00000001FF
